{
  "address": "0x8A899B1F91a787fC4B30b664477b3b5D1A849166",
  "abi": [
    {
      "inputs": [
        {
          "internalType": "address",
          "name": "tokenA_",
          "type": "address"
        },
        {
          "internalType": "address",
          "name": "tokenB_",
          "type": "address"
        }
      ],
      "stateMutability": "nonpayable",
      "type": "constructor"
    },
    {
      "inputs": [],
      "name": "DEADLINE_EXPIRED",
      "type": "error"
    },
    {
      "inputs": [
        {
          "internalType": "address",
          "name": "spender",
          "type": "address"
        },
        {
          "internalType": "uint256",
          "name": "allowance",
          "type": "uint256"
        },
        {
          "internalType": "uint256",
          "name": "needed",
          "type": "uint256"
        }
      ],
      "name": "ERC20InsufficientAllowance",
      "type": "error"
    },
    {
      "inputs": [
        {
          "internalType": "address",
          "name": "sender",
          "type": "address"
        },
        {
          "internalType": "uint256",
          "name": "balance",
          "type": "uint256"
        },
        {
          "internalType": "uint256",
          "name": "needed",
          "type": "uint256"
        }
      ],
      "name": "ERC20InsufficientBalance",
      "type": "error"
    },
    {
      "inputs": [
        {
          "internalType": "address",
          "name": "approver",
          "type": "address"
        }
      ],
      "name": "ERC20InvalidApprover",
      "type": "error"
    },
    {
      "inputs": [
        {
          "internalType": "address",
          "name": "receiver",
          "type": "address"
        }
      ],
      "name": "ERC20InvalidReceiver",
      "type": "error"
    },
    {
      "inputs": [
        {
          "internalType": "address",
          "name": "sender",
          "type": "address"
        }
      ],
      "name": "ERC20InvalidSender",
      "type": "error"
    },
    {
      "inputs": [
        {
          "internalType": "address",
          "name": "spender",
          "type": "address"
        }
      ],
      "name": "ERC20InvalidSpender",
      "type": "error"
    },
    {
      "inputs": [],
      "name": "INSUFFICIENT_LIQUIDITY",
      "type": "error"
    },
    {
      "inputs": [],
      "name": "INSUFFICIENT_OUTPUT_AMOUNT",
      "type": "error"
    },
    {
      "inputs": [],
      "name": "INVALID_SWAP_ROUTE",
      "type": "error"
    },
    {
      "inputs": [],
      "name": "INVALID_TO",
      "type": "error"
    },
    {
      "inputs": [],
      "name": "INVALID_TOKEN",
      "type": "error"
    },
    {
      "inputs": [],
      "name": "UNBALANCED_LIQUIDITY_PROVISION",
      "type": "error"
    },
    {
      "anonymous": false,
      "inputs": [
        {
          "indexed": true,
          "internalType": "address",
          "name": "owner",
          "type": "address"
        },
        {
          "indexed": true,
          "internalType": "address",
          "name": "spender",
          "type": "address"
        },
        {
          "indexed": false,
          "internalType": "uint256",
          "name": "value",
          "type": "uint256"
        }
      ],
      "name": "Approval",
      "type": "event"
    },
    {
      "anonymous": false,
      "inputs": [
        {
          "indexed": true,
          "internalType": "address",
          "name": "lProvider",
          "type": "address"
        },
        {
          "indexed": true,
          "internalType": "address",
          "name": "to",
          "type": "address"
        },
        {
          "indexed": false,
          "internalType": "uint256",
          "name": "amountAIn",
          "type": "uint256"
        },
        {
          "indexed": false,
          "internalType": "uint256",
          "name": "amountBIn",
          "type": "uint256"
        },
        {
          "indexed": false,
          "internalType": "uint256",
          "name": "liquidityTokensOut",
          "type": "uint256"
        }
      ],
      "name": "LiquidityAdded",
      "type": "event"
    },
    {
      "anonymous": false,
      "inputs": [
        {
          "indexed": true,
          "internalType": "address",
          "name": "lProvider",
          "type": "address"
        },
        {
          "indexed": true,
          "internalType": "address",
          "name": "to",
          "type": "address"
        },
        {
          "indexed": false,
          "internalType": "uint256",
          "name": "liquidityTokensIn",
          "type": "uint256"
        },
        {
          "indexed": false,
          "internalType": "uint256",
          "name": "amountAOut",
          "type": "uint256"
        },
        {
          "indexed": false,
          "internalType": "uint256",
          "name": "amountBOut",
          "type": "uint256"
        }
      ],
      "name": "LiquidityRemoved",
      "type": "event"
    },
    {
      "anonymous": false,
      "inputs": [
        {
          "indexed": true,
          "internalType": "address",
          "name": "sender",
          "type": "address"
        },
        {
          "indexed": true,
          "internalType": "address",
          "name": "receiver",
          "type": "address"
        },
        {
          "indexed": false,
          "internalType": "address",
          "name": "tokenIn",
          "type": "address"
        },
        {
          "indexed": false,
          "internalType": "address",
          "name": "tokenOut",
          "type": "address"
        },
        {
          "indexed": false,
          "internalType": "uint256",
          "name": "amountIn",
          "type": "uint256"
        },
        {
          "indexed": false,
          "internalType": "uint256",
          "name": "amountOut",
          "type": "uint256"
        }
      ],
      "name": "Swap",
      "type": "event"
    },
    {
      "anonymous": false,
      "inputs": [
        {
          "indexed": true,
          "internalType": "address",
          "name": "from",
          "type": "address"
        },
        {
          "indexed": true,
          "internalType": "address",
          "name": "to",
          "type": "address"
        },
        {
          "indexed": false,
          "internalType": "uint256",
          "name": "value",
          "type": "uint256"
        }
      ],
      "name": "Transfer",
      "type": "event"
    },
    {
      "inputs": [
        {
          "internalType": "address",
          "name": "tokenA",
          "type": "address"
        },
        {
          "internalType": "address",
          "name": "tokenB",
          "type": "address"
        },
        {
          "internalType": "uint256",
          "name": "amountADesired",
          "type": "uint256"
        },
        {
          "internalType": "uint256",
          "name": "amountBDesired",
          "type": "uint256"
        },
        {
          "internalType": "uint256",
          "name": "amountAMin",
          "type": "uint256"
        },
        {
          "internalType": "uint256",
          "name": "amountBMin",
          "type": "uint256"
        },
        {
          "internalType": "address",
          "name": "to",
          "type": "address"
        },
        {
          "internalType": "uint256",
          "name": "deadline",
          "type": "uint256"
        }
      ],
      "name": "addLiquidity",
      "outputs": [
        {
          "internalType": "uint256",
          "name": "amountA",
          "type": "uint256"
        },
        {
          "internalType": "uint256",
          "name": "amountB",
          "type": "uint256"
        },
        {
          "internalType": "uint256",
          "name": "liquidity",
          "type": "uint256"
        }
      ],
      "stateMutability": "nonpayable",
      "type": "function"
    },
    {
      "inputs": [
        {
          "internalType": "address",
          "name": "owner",
          "type": "address"
        },
        {
          "internalType": "address",
          "name": "spender",
          "type": "address"
        }
      ],
      "name": "allowance",
      "outputs": [
        {
          "internalType": "uint256",
          "name": "",
          "type": "uint256"
        }
      ],
      "stateMutability": "view",
      "type": "function"
    },
    {
      "inputs": [
        {
          "internalType": "address",
          "name": "spender",
          "type": "address"
        },
        {
          "internalType": "uint256",
          "name": "value",
          "type": "uint256"
        }
      ],
      "name": "approve",
      "outputs": [
        {
          "internalType": "bool",
          "name": "",
          "type": "bool"
        }
      ],
      "stateMutability": "nonpayable",
      "type": "function"
    },
    {
      "inputs": [
        {
          "internalType": "address",
          "name": "account",
          "type": "address"
        }
      ],
      "name": "balanceOf",
      "outputs": [
        {
          "internalType": "uint256",
          "name": "",
          "type": "uint256"
        }
      ],
      "stateMutability": "view",
      "type": "function"
    },
    {
      "inputs": [],
      "name": "decimals",
      "outputs": [
        {
          "internalType": "uint8",
          "name": "",
          "type": "uint8"
        }
      ],
      "stateMutability": "view",
      "type": "function"
    },
    {
      "inputs": [
        {
          "internalType": "uint256",
          "name": "amountIn",
          "type": "uint256"
        },
        {
          "internalType": "uint256",
          "name": "reserveIn",
          "type": "uint256"
        },
        {
          "internalType": "uint256",
          "name": "reserveOut",
          "type": "uint256"
        }
      ],
      "name": "getAmountOut",
      "outputs": [
        {
          "internalType": "uint256",
          "name": "amountOut",
          "type": "uint256"
        }
      ],
      "stateMutability": "pure",
      "type": "function"
    },
    {
      "inputs": [
        {
          "internalType": "address",
          "name": "tokenA",
          "type": "address"
        },
        {
          "internalType": "address",
          "name": "tokenB",
          "type": "address"
        }
      ],
      "name": "getPrice",
      "outputs": [
        {
          "internalType": "uint256",
          "name": "price",
          "type": "uint256"
        }
      ],
      "stateMutability": "view",
      "type": "function"
    },
    {
      "inputs": [],
      "name": "name",
      "outputs": [
        {
          "internalType": "string",
          "name": "",
          "type": "string"
        }
      ],
      "stateMutability": "view",
      "type": "function"
    },
    {
      "inputs": [
        {
          "internalType": "address",
          "name": "tokenA",
          "type": "address"
        },
        {
          "internalType": "address",
          "name": "tokenB",
          "type": "address"
        },
        {
          "internalType": "uint256",
          "name": "liquidity",
          "type": "uint256"
        },
        {
          "internalType": "uint256",
          "name": "amountAMin",
          "type": "uint256"
        },
        {
          "internalType": "uint256",
          "name": "amountBMin",
          "type": "uint256"
        },
        {
          "internalType": "address",
          "name": "to",
          "type": "address"
        },
        {
          "internalType": "uint256",
          "name": "deadline",
          "type": "uint256"
        }
      ],
      "name": "removeLiquidity",
      "outputs": [
        {
          "internalType": "uint256",
          "name": "amountA",
          "type": "uint256"
        },
        {
          "internalType": "uint256",
          "name": "amountB",
          "type": "uint256"
        }
      ],
      "stateMutability": "nonpayable",
      "type": "function"
    },
    {
      "inputs": [
        {
          "internalType": "uint256",
          "name": "amountIn",
          "type": "uint256"
        },
        {
          "internalType": "uint256",
          "name": "amountOutMin",
          "type": "uint256"
        },
        {
          "internalType": "address[]",
          "name": "path",
          "type": "address[]"
        },
        {
          "internalType": "address",
          "name": "to",
          "type": "address"
        },
        {
          "internalType": "uint256",
          "name": "deadline",
          "type": "uint256"
        }
      ],
      "name": "swapExactTokensForTokens",
      "outputs": [],
      "stateMutability": "nonpayable",
      "type": "function"
    },
    {
      "inputs": [],
      "name": "symbol",
      "outputs": [
        {
          "internalType": "string",
          "name": "",
          "type": "string"
        }
      ],
      "stateMutability": "view",
      "type": "function"
    },
    {
      "inputs": [],
      "name": "totalSupply",
      "outputs": [
        {
          "internalType": "uint256",
          "name": "",
          "type": "uint256"
        }
      ],
      "stateMutability": "view",
      "type": "function"
    },
    {
      "inputs": [
        {
          "internalType": "address",
          "name": "to",
          "type": "address"
        },
        {
          "internalType": "uint256",
          "name": "value",
          "type": "uint256"
        }
      ],
      "name": "transfer",
      "outputs": [
        {
          "internalType": "bool",
          "name": "",
          "type": "bool"
        }
      ],
      "stateMutability": "nonpayable",
      "type": "function"
    },
    {
      "inputs": [
        {
          "internalType": "address",
          "name": "from",
          "type": "address"
        },
        {
          "internalType": "address",
          "name": "to",
          "type": "address"
        },
        {
          "internalType": "uint256",
          "name": "value",
          "type": "uint256"
        }
      ],
      "name": "transferFrom",
      "outputs": [
        {
          "internalType": "bool",
          "name": "",
          "type": "bool"
        }
      ],
      "stateMutability": "nonpayable",
      "type": "function"
    }
  ],
  "transactionHash": "0x5112546426b1864772c0ff9b04cdbc8acca796fbf9722591efe76fbb1e2a0405",
  "args": [
    "0xF357f5b73C5FB76D3630b96b8f4dC0c5460F926c",
    "0xBb4a49dcac65C4bAFa4cb9313A2796E19360A4D3"
  ],
  "numDeployments": 1,
  "solcInputHash": "8baefc71199a1c5b0e5c890bd26fdebb",
  "bytecode": "0x60c060405234801561001057600080fd5b50604051611d42380380611d4283398101604081905261002f916100c3565b6040518060400160405280600b81526020016a262829b430b932b9afa0a160a91b8152506040518060400160405280600581526020016426282fa0a160d91b81525081600390816100809190610195565b50600461008d8282610195565b5050506001600160a01b039182166080521660a052610253565b80516001600160a01b03811681146100be57600080fd5b919050565b600080604083850312156100d657600080fd5b6100df836100a7565b91506100ed602084016100a7565b90509250929050565b634e487b7160e01b600052604160045260246000fd5b600181811c9082168061012057607f821691505b60208210810361014057634e487b7160e01b600052602260045260246000fd5b50919050565b601f82111561019057806000526020600020601f840160051c8101602085101561016d5750805b601f840160051c820191505b8181101561018d5760008155600101610179565b50505b505050565b81516001600160401b038111156101ae576101ae6100f6565b6101c2816101bc845461010c565b84610146565b6020601f8211600181146101f657600083156101de5750848201515b600019600385901b1c1916600184901b17845561018d565b600084815260208120601f198516915b828110156102265787850151825560209485019460019092019101610206565b50848210156102445786840151600019600387901b60f8161c191681555b50505050600190811b01905550565b60805160a051611aa06102a2600039600081816104aa0152818161055b01528181610a170152610d6c01526000818161048101528181610500015281816109db0152610d300152611aa06000f3fe608060405234801561001057600080fd5b50600436106100ea5760003560e01c806370a082311161008c578063ac41865a11610066578063ac41865a146101d0578063baa2abde146101e3578063dd62ed3e1461020b578063e8e337001461024457600080fd5b806370a082311461018c57806395d89b41146101b5578063a9059cbb146101bd57600080fd5b806318160ddd116100c857806318160ddd1461014d57806323b872dd14610155578063313ce5671461016857806338ed17391461017757600080fd5b8063054d50d4146100ef57806306fdde0314610115578063095ea7b31461012a575b600080fd5b6101026100fd366004611693565b610272565b6040519081526020015b60405180910390f35b61011d61029a565b60405161010c91906116bf565b61013d610138366004611729565b61032c565b604051901515815260200161010c565b600254610102565b61013d610163366004611753565b610346565b6040516012815260200161010c565b61018a610185366004611790565b61036a565b005b61010261019a366004611836565b6001600160a01b031660009081526020819052604090205490565b61011d610838565b61013d6101cb366004611729565b610847565b6101026101de366004611851565b610855565b6101f66101f1366004611884565b61098c565b6040805192835260208301919091520161010c565b610102610219366004611851565b6001600160a01b03918216600090815260016020908152604080832093909416825291909152205490565b6102576102523660046118f1565b610cdf565b6040805193845260208401929092529082015260600161010c565b600061027e848461197d565b6102888386611990565b61029291906119bd565b949350505050565b6060600380546102a9906119df565b80601f01602080910402602001604051908101604052809291908181526020018280546102d5906119df565b80156103225780601f106102f757610100808354040283529160200191610322565b820191906000526020600020905b81548152906001019060200180831161030557829003601f168201915b5050505050905090565b60003361033a81858561108a565b60019150505b92915050565b60003361035485828561109c565b61035f85858561111f565b506001949350505050565b808042111561038c5760405163086014a960e31b815260040160405180910390fd5b826001600160a01b0381166103b45760405163222a2ad160e01b815260040160405180910390fd5b6103f86040518060a0016040528060006001600160a01b0316815260200160006001600160a01b031681526020016000815260200160008152602001600081525090565b600286146104195760405163950f511360e01b815260040160405180910390fd5b8686600081811061042c5761042c611a19565b90506020020160208101906104419190611836565b8787600181811061045457610454611a19565b90506020020160208101906104699190611836565b6001600160a01b0390811660208401529081168083527f000000000000000000000000000000000000000000000000000000000000000090911614610559577f00000000000000000000000000000000000000000000000000000000000000006001600160a01b031681600001516001600160a01b0316146104fe5760405163684cae7960e11b815260040160405180910390fd5b7f00000000000000000000000000000000000000000000000000000000000000006001600160a01b031681602001516001600160a01b0316146105545760405163684cae7960e11b815260040160405180910390fd5b6105af565b7f00000000000000000000000000000000000000000000000000000000000000006001600160a01b031681602001516001600160a01b0316146105af5760405163684cae7960e11b815260040160405180910390fd5b80516040516370a0823160e01b81523060048201526001600160a01b03909116906370a0823190602401602060405180830381865afa1580156105f6573d6000803e3d6000fd5b505050506040513d601f19601f8201168201806040525081019061061a9190611a2f565b604080830191909152602082015190516370a0823160e01b81523060048201526001600160a01b03909116906370a0823190602401602060405180830381865afa15801561066c573d6000803e3d6000fd5b505050506040513d601f19601f820116820180604052508101906106909190611a2f565b6060820181905260408201516106a8918b9190610272565b608082018190528811156106cf576040516309f7208b60e21b815260040160405180910390fd5b80516040516323b872dd60e01b8152336004820152306024820152604481018b90526001600160a01b03909116906323b872dd906064016020604051808303816000875af1158015610725573d6000803e3d6000fd5b505050506040513d601f19601f820116820180604052508101906107499190611a48565b506020810151608082015160405163a9059cbb60e01b81526001600160a01b038881166004830152602482019290925291169063a9059cbb906044016020604051808303816000875af11580156107a4573d6000803e3d6000fd5b505050506040513d601f19601f820116820180604052508101906107c89190611a48565b508051602080830151608080850151604080516001600160a01b039687168152938616948401949094528284018e9052606083015291519288169233927f20efd6d5195b7b50273f01cd79a27989255356f9f13293edc53ee142accfdb75928290030190a3505050505050505050565b6060600480546102a9906119df565b60003361033a81858561111f565b6040516370a0823160e01b815230600482015260009081906001600160a01b038516906370a0823190602401602060405180830381865afa15801561089e573d6000803e3d6000fd5b505050506040513d601f19601f820116820180604052508101906108c29190611a2f565b6040516370a0823160e01b81523060048201529091506000906001600160a01b038516906370a0823190602401602060405180830381865afa15801561090c573d6000803e3d6000fd5b505050506040513d601f19601f820116820180604052508101906109309190611a2f565b90506000821180156109425750600081115b1561096b578161095a82670de0b6b3a7640000611990565b61096491906119bd565b9250610984565b60405163827e7b7f60e01b815260040160405180910390fd5b505092915050565b60008082804211156109b15760405163086014a960e31b815260040160405180910390fd5b846001600160a01b0381166109d95760405163222a2ad160e01b815260040160405180910390fd5b7f00000000000000000000000000000000000000000000000000000000000000006001600160a01b03168b6001600160a01b0316141580610a4c57507f00000000000000000000000000000000000000000000000000000000000000006001600160a01b03168a6001600160a01b031614155b15610a6a5760405163684cae7960e11b815260040160405180910390fd5b6040516370a0823160e01b81523060048201526000906001600160a01b038d16906370a0823190602401602060405180830381865afa158015610ab1573d6000803e3d6000fd5b505050506040513d601f19601f82011682018060405250810190610ad59190611a2f565b6040516370a0823160e01b81523060048201529091506000906001600160a01b038d16906370a0823190602401602060405180830381865afa158015610b1f573d6000803e3d6000fd5b505050506040513d601f19601f82011682018060405250810190610b439190611a2f565b90506000610b5060025490565b9050610b5e8c84848461117e565b90975095508a871080610b7057508986105b15610b8e5760405163827e7b7f60e01b815260040160405180910390fd5b610b98338d6111b8565b60405163a9059cbb60e01b81526001600160a01b038a81166004830152602482018990528f169063a9059cbb906044016020604051808303816000875af1158015610be7573d6000803e3d6000fd5b505050506040513d601f19601f82011682018060405250810190610c0b9190611a48565b5060405163a9059cbb60e01b81526001600160a01b038a81166004830152602482018890528e169063a9059cbb906044016020604051808303816000875af1158015610c5b573d6000803e3d6000fd5b505050506040513d601f19601f82011682018060405250810190610c7f9190611a48565b50604080518d8152602081018990529081018790526001600160a01b038a169033907fbc7d19d505c7ec4db83f3b51f19fb98c4c8a99922e7839d1ee608dfbee29501b9060600160405180910390a3505050505097509795505050505050565b60008060008380421115610d065760405163086014a960e31b815260040160405180910390fd5b856001600160a01b038116610d2e5760405163222a2ad160e01b815260040160405180910390fd5b7f00000000000000000000000000000000000000000000000000000000000000006001600160a01b03168d6001600160a01b0316141580610da157507f00000000000000000000000000000000000000000000000000000000000000006001600160a01b03168c6001600160a01b031614155b15610dbf5760405163684cae7960e11b815260040160405180910390fd5b6040516370a0823160e01b81523060048201526000906001600160a01b038f16906370a0823190602401602060405180830381865afa158015610e06573d6000803e3d6000fd5b505050506040513d601f19601f82011682018060405250810190610e2a9190611a2f565b6040516370a0823160e01b81523060048201529091506000906001600160a01b038f16906370a0823190602401602060405180830381865afa158015610e74573d6000803e3d6000fd5b505050506040513d601f19601f82011682018060405250810190610e989190611a2f565b90506000610ea560025490565b9050610eb38e8e85856111f2565b90985096508b881080610ec557508a87105b15610ee35760405163d5c70b9560e01b815260040160405180910390fd5b8f6001600160a01b03166323b872dd33308b6040518463ffffffff1660e01b8152600401610f32939291906001600160a01b039384168152919092166020820152604081019190915260600190565b6020604051808303816000875af1158015610f51573d6000803e3d6000fd5b505050506040513d601f19601f82011682018060405250810190610f759190611a48565b508e6001600160a01b03166323b872dd33308a6040518463ffffffff1660e01b8152600401610fc5939291906001600160a01b039384168152919092166020820152604081019190915260600190565b6020604051808303816000875af1158015610fe4573d6000803e3d6000fd5b505050506040513d601f19601f820116820180604052508101906110089190611a48565b506110168888858585611264565b95508515611077576110288a876112c5565b60408051898152602081018990529081018790526001600160a01b038b169033907f4a1a2a6176e9646d9e3157f7c2ab3c499f18337c0b0828cfb28e0a61de4a11f79060600160405180910390a35b5050505050985098509895505050505050565b61109783838360016112fb565b505050565b6001600160a01b038381166000908152600160209081526040808320938616835292905220546000198114611119578181101561110a57604051637dc7a0d960e11b81526001600160a01b038416600482015260248101829052604481018390526064015b60405180910390fd5b611119848484840360006112fb565b50505050565b6001600160a01b03831661114957604051634b637e8f60e11b815260006004820152602401611101565b6001600160a01b0382166111735760405163ec442f0560e01b815260006004820152602401611101565b6110978383836113d0565b6000808261118c8688611990565b61119691906119bd565b9150826111a38588611990565b6111ad91906119bd565b905094509492505050565b6001600160a01b0382166111e257604051634b637e8f60e11b815260006004820152602401611101565b6111ee826000836113d0565b5050565b60008083158015611201575082155b1561121057508490508361125b565b60008461121d8589611990565b61122791906119bd565b905085811161123b57869250809150611259565b6000846112488789611990565b61125291906119bd565b9350869250505b505b94509492505050565b6000816000036112875761128061127b8688611990565b6114fa565b90506112bc565b6112b9846112958489611990565b61129f91906119bd565b846112aa8589611990565b6112b491906119bd565b6115e9565b90505b95945050505050565b6001600160a01b0382166112ef5760405163ec442f0560e01b815260006004820152602401611101565b6111ee600083836113d0565b6001600160a01b0384166113255760405163e602df0560e01b815260006004820152602401611101565b6001600160a01b03831661134f57604051634a1406b160e11b815260006004820152602401611101565b6001600160a01b038085166000908152600160209081526040808320938716835292905220829055801561111957826001600160a01b0316846001600160a01b03167f8c5be1e5ebec7d5bd14f71427d1e84f3dd0314c0f7b2291e5b200ac8c7c3b925846040516113c291815260200190565b60405180910390a350505050565b6001600160a01b0383166113fb5780600260008282546113f0919061197d565b9091555061146d9050565b6001600160a01b0383166000908152602081905260409020548181101561144e5760405163391434e360e21b81526001600160a01b03851660048201526024810182905260448101839052606401611101565b6001600160a01b03841660009081526020819052604090209082900390555b6001600160a01b038216611489576002805482900390556114a8565b6001600160a01b03821660009081526020819052604090208054820190555b816001600160a01b0316836001600160a01b03167fddf252ad1be2c89b69c2b068fc378daa952ba7f163c4a11628f55a4df523b3ef836040516114ed91815260200190565b60405180910390a3505050565b60008160000361150c57506000919050565b60006001611519846115ff565b901c6001901b90506001818481611532576115326119a7565b048201901c9050600181848161154a5761154a6119a7565b048201901c90506001818481611562576115626119a7565b048201901c9050600181848161157a5761157a6119a7565b048201901c90506001818481611592576115926119a7565b048201901c905060018184816115aa576115aa6119a7565b048201901c905060018184816115c2576115c26119a7565b048201901c90506115e2818285816115dc576115dc6119a7565b046115e9565b9392505050565b60008183106115f857816115e2565b5090919050565b600080608083901c1561161457608092831c92015b604083901c1561162657604092831c92015b602083901c1561163857602092831c92015b601083901c1561164a57601092831c92015b600883901c1561165c57600892831c92015b600483901c1561166e57600492831c92015b600283901c1561168057600292831c92015b600183901c156103405760010192915050565b6000806000606084860312156116a857600080fd5b505081359360208301359350604090920135919050565b602081526000825180602084015260005b818110156116ed57602081860181015160408684010152016116d0565b506000604082850101526040601f19601f83011684010191505092915050565b80356001600160a01b038116811461172457600080fd5b919050565b6000806040838503121561173c57600080fd5b6117458361170d565b946020939093013593505050565b60008060006060848603121561176857600080fd5b6117718461170d565b925061177f6020850161170d565b929592945050506040919091013590565b60008060008060008060a087890312156117a957600080fd5b8635955060208701359450604087013567ffffffffffffffff8111156117ce57600080fd5b8701601f810189136117df57600080fd5b803567ffffffffffffffff8111156117f657600080fd5b8960208260051b840101111561180b57600080fd5b602091909101945092506118216060880161170d565b95989497509295919493608090920135925050565b60006020828403121561184857600080fd5b6115e28261170d565b6000806040838503121561186457600080fd5b61186d8361170d565b915061187b6020840161170d565b90509250929050565b600080600080600080600060e0888a03121561189f57600080fd5b6118a88861170d565b96506118b66020890161170d565b95506040880135945060608801359350608088013592506118d960a0890161170d565b96999598509396929591949193505060c09091013590565b600080600080600080600080610100898b03121561190e57600080fd5b6119178961170d565b975061192560208a0161170d565b965060408901359550606089013594506080890135935060a0890135925061194f60c08a0161170d565b979a969950949793969295919450919260e001359150565b634e487b7160e01b600052601160045260246000fd5b8082018082111561034057610340611967565b808202811582820484141761034057610340611967565b634e487b7160e01b600052601260045260246000fd5b6000826119da57634e487b7160e01b600052601260045260246000fd5b500490565b600181811c908216806119f357607f821691505b602082108103611a1357634e487b7160e01b600052602260045260246000fd5b50919050565b634e487b7160e01b600052603260045260246000fd5b600060208284031215611a4157600080fd5b5051919050565b600060208284031215611a5a57600080fd5b815180151581146115e257600080fdfea264697066735822122001b1bd65dff09af69aabbd448909aa39ca20d66fa1ebcb4ac11e7a94b4bbd82a64736f6c634300081c0033",
  "devdoc": {
    "errors": {
      "ERC20InsufficientAllowance(address,uint256,uint256)": [
        {
          "details": "Indicates a failure with the `spender`s `allowance`. Used in transfers.",
          "params": {
            "allowance": "Amount of tokens a `spender` is allowed to operate with.",
            "needed": "Minimum amount required to perform a transfer.",
            "spender": "Address that may be allowed to operate on tokens without being their owner."
          }
        }
      ],
      "ERC20InsufficientBalance(address,uint256,uint256)": [
        {
          "details": "Indicates an error related to the current `balance` of a `sender`. Used in transfers.",
          "params": {
            "balance": "Current balance for the interacting account.",
            "needed": "Minimum amount required to perform a transfer.",
            "sender": "Address whose tokens are being transferred."
          }
        }
      ],
      "ERC20InvalidApprover(address)": [
        {
          "details": "Indicates a failure with the `approver` of a token to be approved. Used in approvals.",
          "params": {
            "approver": "Address initiating an approval operation."
          }
        }
      ],
      "ERC20InvalidReceiver(address)": [
        {
          "details": "Indicates a failure with the token `receiver`. Used in transfers.",
          "params": {
            "receiver": "Address to which tokens are being transferred."
          }
        }
      ],
      "ERC20InvalidSender(address)": [
        {
          "details": "Indicates a failure with the token `sender`. Used in transfers.",
          "params": {
            "sender": "Address whose tokens are being transferred."
          }
        }
      ],
      "ERC20InvalidSpender(address)": [
        {
          "details": "Indicates a failure with the `spender` to be approved. Used in approvals.",
          "params": {
            "spender": "Address that may be allowed to operate on tokens without being their owner."
          }
        }
      ]
    },
    "events": {
      "Approval(address,address,uint256)": {
        "details": "Emitted when the allowance of a `spender` for an `owner` is set by a call to {approve}. `value` is the new allowance."
      },
      "LiquidityAdded(address,address,uint256,uint256,uint256)": {
        "params": {
          "amountAIn": ": amount of token A deposited",
          "amountBIn": ": amount of token B deposited",
          "lProvider": ":  address of liquidity provider",
          "liquidityTokensOut": ": amount of LP shares minted",
          "to": ":  address of receiver of liquidity tokens"
        }
      },
      "LiquidityRemoved(address,address,uint256,uint256,uint256)": {
        "params": {
          "amountAOut": ": amount of token A received/withdrawn",
          "amountBOut": ": amount of token B received/withdrawn",
          "lProvider": ":  address of liquidity provider",
          "liquidityTokensIn": ": amount of LP shares burnt",
          "to": ":  address of receiver of liquidity tokens"
        }
      },
      "Swap(address,address,address,address,uint256,uint256)": {
        "params": {
          "amountIn": ": amount of token deposite",
          "amountOut": ": amount of token received/withdrawn",
          "receiver": ": address of recipient of output tokens",
          "sender": ":  address of provider of input tokens",
          "tokenIn": ": address of token deposited ",
          "tokenOut": ": address of token received"
        }
      },
      "Transfer(address,address,uint256)": {
        "details": "Emitted when `value` tokens are moved from one account (`from`) to another (`to`). Note that `value` may be zero."
      }
    },
    "kind": "dev",
    "methods": {
      "addLiquidity(address,address,uint256,uint256,uint256,uint256,address,uint256)": {
        "details": "Adds liquidity to the pool.",
        "params": {
          "amountADesired": "The maximum amount of tokenA to deposit.",
          "amountAMin": "The minimum amount of tokenA to accept. Transaction reverts if less is used.",
          "amountBDesired": "The maximum amount of tokenB to deposit.",
          "amountBMin": "The minimum amount of tokenB to accept. Transaction reverts if less is used.",
          "deadline": "The unix timestamp after which the transaction will revert.",
          "to": "The address to receive the liquidity tokens.",
          "tokenA": "The address of the first token.",
          "tokenB": "The address of the second token."
        },
        "returns": {
          "amountA": "The actual amount of tokenA deposited.",
          "amountB": "The actual amount of tokenB deposited.",
          "liquidity": "The amount of liquidity tokens minted."
        }
      },
      "allowance(address,address)": {
        "details": "See {IERC20-allowance}."
      },
      "approve(address,uint256)": {
        "details": "See {IERC20-approve}. NOTE: If `value` is the maximum `uint256`, the allowance is not updated on `transferFrom`. This is semantically equivalent to an infinite approval. Requirements: - `spender` cannot be the zero address."
      },
      "balanceOf(address)": {
        "details": "See {IERC20-balanceOf}."
      },
      "decimals()": {
        "details": "Returns the number of decimals used to get its user representation. For example, if `decimals` equals `2`, a balance of `505` tokens should be displayed to a user as `5.05` (`505 / 10 ** 2`). Tokens usually opt for a value of 18, imitating the relationship between Ether and Wei. This is the default value returned by this function, unless it's overridden. NOTE: This information is only used for _display_ purposes: it in no way affects any of the arithmetic of the contract, including {IERC20-balanceOf} and {IERC20-transfer}."
      },
      "getAmountOut(uint256,uint256,uint256)": {
        "details": "return the amount of tokens to obtain in exchange for amountIn, according to current reserves we use public rather than external as we also use this function in swapExactTokensForTokens if there is no reserveIn and a zero amountIn, it will fail for division by zero.",
        "params": {
          "amountIn": "The amount of tokens to exchange",
          "reserveIn": "The amount of reserves of the input token",
          "reserveOut": "The amount of reserves of the output token"
        },
        "returns": {
          "amountOut": "the amount of output tokens"
        }
      },
      "getPrice(address,address)": {
        "details": "return the price of token A in terms of tokenB, according to current reserves",
        "params": {
          "tokenA": "The address of the first token.",
          "tokenB": "The address of the second token."
        },
        "returns": {
          "price": "The price of token A in decimals units of tokenB"
        }
      },
      "name()": {
        "details": "Returns the name of the token."
      },
      "removeLiquidity(address,address,uint256,uint256,uint256,address,uint256)": {
        "details": "Removes liquidity from the pool.",
        "params": {
          "amountAMin": "The minimum amount of tokenA to accept. Transaction reverts if less is issued.",
          "amountBMin": "The minimum amount of tokenB to accept. Transaction reverts if less is issued.",
          "deadline": "The unix timestamp after which the transaction will revert.",
          "liquidity": "The amount of LP_AB tokens to redeem",
          "to": "The address to receive the A and B tokens.",
          "tokenA": "The address of the first token.",
          "tokenB": "The address of the second token."
        },
        "returns": {
          "amountA": "The amount of tokenA received.",
          "amountB": "The amount of tokenB received."
        }
      },
      "swapExactTokensForTokens(uint256,uint256,address[],address,uint256)": {
        "details": "swap a given amount of tokens for its corresponding pair in the pool, according to the current balance",
        "params": {
          "amountIn": "The amount of tokens provided to swap",
          "amountOutMin": "The minimum of tokens accepted in exchange (slippage protection)",
          "deadline": "The unix timestamp after which the transaction will revert. ",
          "path": "The route of token addresses to follow  (in our case, only 2, either [tokenA,tokenB] or [tokenB,tokenA])",
          "to": "The address to receive the exchanged tokens."
        }
      },
      "symbol()": {
        "details": "Returns the symbol of the token, usually a shorter version of the name."
      },
      "totalSupply()": {
        "details": "See {IERC20-totalSupply}."
      },
      "transfer(address,uint256)": {
        "details": "See {IERC20-transfer}. Requirements: - `to` cannot be the zero address. - the caller must have a balance of at least `value`."
      },
      "transferFrom(address,address,uint256)": {
        "details": "See {IERC20-transferFrom}. Emits an {Approval} event indicating the updated allowance. This is not required by the EIP. See the note at the beginning of {ERC20}. NOTE: Does not update the allowance if the current allowance is the maximum `uint256`. Requirements: - `from` and `to` cannot be the zero address. - `from` must have a balance of at least `value`. - the caller must have allowance for ``from``'s tokens of at least `value`."
      }
    },
    "version": 1
  },
  "userdoc": {
    "errors": {
      "DEADLINE_EXPIRED()": [
        {
          "notice": "deadline expired to perform operation"
        }
      ],
      "INSUFFICIENT_LIQUIDITY()": [
        {
          "notice": "insufficient liquidity to swap or to fulfill a liquidity withdrawal"
        }
      ],
      "INSUFFICIENT_OUTPUT_AMOUNT()": [
        {
          "notice": "insufficient amount of expected output tokens,  below minimum desired"
        }
      ],
      "INVALID_SWAP_ROUTE()": [
        {
          "notice": "invalid swap route in our simple set up, it should have length 2 and consists of either [tokenA,tokenB] or [tokenB,tokenA]"
        }
      ],
      "INVALID_TO()": [
        {
          "notice": "invalid address to send tokens to (address(0))"
        }
      ],
      "INVALID_TOKEN()": [
        {
          "notice": "invalid token address for interaction"
        }
      ],
      "UNBALANCED_LIQUIDITY_PROVISION()": [
        {
          "notice": "proposed liquidity provision would unbalance pool,  breaking the invariant x * y == k"
        }
      ]
    },
    "events": {
      "LiquidityAdded(address,address,uint256,uint256,uint256)": {
        "notice": "someone added liquidity to the pool"
      },
      "LiquidityRemoved(address,address,uint256,uint256,uint256)": {
        "notice": "some LP removed liquidity to the pool"
      },
      "Swap(address,address,address,address,uint256,uint256)": {
        "notice": "a swap has been performed from tokenIn into tokenOut"
      }
    },
    "kind": "user",
    "methods": {},
    "version": 1
  },
  "storageLayout": {
    "storage": [
      {
        "astId": 307,
        "contract": "contracts/SimpleSwap.sol:SimpleSwap",
        "label": "_balances",
        "offset": 0,
        "slot": "0",
        "type": "t_mapping(t_address,t_uint256)"
      },
      {
        "astId": 313,
        "contract": "contracts/SimpleSwap.sol:SimpleSwap",
        "label": "_allowances",
        "offset": 0,
        "slot": "1",
        "type": "t_mapping(t_address,t_mapping(t_address,t_uint256))"
      },
      {
        "astId": 315,
        "contract": "contracts/SimpleSwap.sol:SimpleSwap",
        "label": "_totalSupply",
        "offset": 0,
        "slot": "2",
        "type": "t_uint256"
      },
      {
        "astId": 317,
        "contract": "contracts/SimpleSwap.sol:SimpleSwap",
        "label": "_name",
        "offset": 0,
        "slot": "3",
        "type": "t_string_storage"
      },
      {
        "astId": 319,
        "contract": "contracts/SimpleSwap.sol:SimpleSwap",
        "label": "_symbol",
        "offset": 0,
        "slot": "4",
        "type": "t_string_storage"
      }
    ],
    "types": {
      "t_address": {
        "encoding": "inplace",
        "label": "address",
        "numberOfBytes": "20"
      },
      "t_mapping(t_address,t_mapping(t_address,t_uint256))": {
        "encoding": "mapping",
        "key": "t_address",
        "label": "mapping(address => mapping(address => uint256))",
        "numberOfBytes": "32",
        "value": "t_mapping(t_address,t_uint256)"
      },
      "t_mapping(t_address,t_uint256)": {
        "encoding": "mapping",
        "key": "t_address",
        "label": "mapping(address => uint256)",
        "numberOfBytes": "32",
        "value": "t_uint256"
      },
      "t_string_storage": {
        "encoding": "bytes",
        "label": "string",
        "numberOfBytes": "32"
      },
      "t_uint256": {
        "encoding": "inplace",
        "label": "uint256",
        "numberOfBytes": "32"
      }
    }
  }
}